:020000040800F2
:10000000005000206D070008150500081D050008B8
:10001000250500082D050008350500080000000032
:100020000000000000000000000000003D05000886
:10003000490500080000000055050008610500089A
:10004000B5070008B5070008B5070008B5070008A0
:10005000B5070008B5070008B5070008B507000890
:10006000B5070008B5070008B5070008B507000880
:10007000B5070008B5070008B5070008B507000870
:10008000B5070008B5070008B5070008B507000860
:10009000B5070008B5070008B5070008B507000850
:1000A000B5070008B5070008B5070008B507000840
:1000B00031060008B5070008B5070008B5070008B5
:1000C000B5070008B5070008B5070008B507000820
:1000D000B5070008B5070008B5070008B507000810
:1000E000B5070008B5070008B507000800000000C4
:1000F0000000000000000000000000000000000000
:0C01000000000000000000005FF808F1A3
:10010C0010B5054C237833B9044B13B10448AFF345
:10011C0000800123237010BD10000020000000009F
:10012C009015000808B5034B1BB103490348AFF306
:10013C00008008BD0000000014000020901500088D
:10014C0080B400AF2C4B9B692B4A43F0090393619D
:10015C00294BDB69284A43F00073D361274B5B685A
:10016C00264A43F480435360254B5B68244A23F0B2
:10017C000F035360224B5B68214A43F00403536026
:10018C001F4B5B681E4A23F0F00353601C4B5B68EB
:10019C001B4A43F0B00353601A4B1B68194A23F0F7
:1001AC000203136000BF174B5B6803F00203002BC4
:1001BC00F9D1144B1B68134A43F00103136000BFC1
:1001CC00104B5B6803F00103002BF9D00D4B0E4A6A
:1001DC00DA610C4B1B680B4A23F00103136000BF60
:1001EC00084B5B6803F00103002BF9D100BF00BF83
:1001FC00BD4680BC704700BF0010024000000140AB
:10020C00000C01400064004003001E0080B487B065
:10021C0000AFF8600B467A60FB72544B9B6803F09E
:10022C008063002B02D00023FB7513E04F4B9B68BF
:10023C0003F00063002B02D00123FB750AE04B4B4B
:10024C009B6803F08053002B02D00223FB7501E066
:10025C00002386E0454AFB7D18331B0113441B68C1
:10026C00424AFB7D18331B01134400221A60FB7AAF
:10027C00002B0FD13D4AFB7D18331B011344196829
:10028C00FB685A053948FB7D0A4318331B010344AC
:10029C001A601CE0354AFB7D18331B0113441A68A5
:1002AC003249FB7D42F0040218331B010B441A60E7
:1002BC002E4AFB7D18331B0113441968FB68DA00C6
:1002CC002A48FB7D0A4318331B0103441A60274A52
:1002DC00FB7D18331B011344043308221A607B681E
:1002EC0003331B781A067B6802331B781B041A43F2
:1002FC007B6801331B781B021A437B681B781846FA
:10030C001A49FB7D02431B010B4403F5C4731A60AD
:10031C007B6807331B781A067B6806331B781B0433
:10032C001A437B6805331B781B021A437B68043322
:10033C001B7818460D49FB7D02431B010B4403F54A
:10034C00C6731A60094AFB7D18331B0113441A68E3
:10035C000649FB7D42F0010218331B010B441A6065
:10036C00012318461C37BD4680BC70470064004012
:10037C0080B500AF00F01AFA00F00AF800F04EF861
:10038C00FFF7DEFE00F0AAF900F014F900BFFDE75C
:10039C0080B590B000AF07F1180328220021184651
:1003AC0001F0C4F83B1D00221A605A609A60DA60B2
:1003BC001A610123BB614FF48033FB6100233B6264
:1003CC000123BB6202237B634FF48033BB634FF486
:1003DC00E013FB6307F11803184600F0C9FC034651
:1003EC00002B01D000F058F80F237B600223BB6078
:1003FC000023FB604FF480633B6100237B613B1D5A
:10040C000221184600F036FF0346002B01D000F005
:10041C0043F800BF4037BD4680BD000080B586B0B4
:10042C0000AF07F1080300221A605A609A60DA6084
:10043C00174B9B69164A43F020039361144B9B693D
:10044C0003F020037B607B68114B9B69104A43F0DF
:10045C00080393610E4B9B6903F008033B603B68F8
:10046C00002202210B4800F06BFC0223BB6001232D
:10047C00FB6000233B6102237B6107F108031946F3
:10048C00044800F0D9FA00BF1837BD4680BD00BF44
:10049C0000100240000C014080B400AF72B600BFE7
:1004AC0000BFFDE780B485B000AF154B9B69144AC3
:1004BC0043F001039361124B9B6903F00103BB6092
:1004CC00BB680F4BDB690E4A43F08053D3610C4B76
:1004DC00DB6903F080537B607B680A4B5B68FB60D5
:1004EC00FB6823F0E063FB60FB6843F08063FB6018
:1004FC00044AFB68536000BF1437BD4680BC70478C
:10050C00001002400000014080B400AF00BFFDE7C6
:10051C0080B400AF00BFFDE780B400AF00BFFDE7C3
:10052C0080B400AF00BFFDE780B400AF00BFFDE7B3
:10053C0080B400AF00BFBD4680BC704780B400AF34
:10054C0000BFBD4680BC704780B400AF00BFBD4645
:10055C0080BC704780B500AF00F06EF9034B1B6890
:10056C000133024A136000BF80BD00BF2C00002085
:10057C0080B400AF00BFBD4680BC704780B483B070
:10058C0000AF0346FB7197F90730002B0BDBFB79AF
:10059C0003F01F02064997F907305B09012000FAA6
:1005AC0002F241F8232000BF0C37BD4680BC7047D7
:1005BC0000E100E080B500AF184BDB69174A43F04F
:1005CC000103D3614FF0804347229A62144B1B689E
:1005DC004FF08042013BD3624FF0804300225A62BD
:1005EC004FF080435B694FF0804243F0010353614D
:1005FC004FF08043DB684FF0804243F00103D3603F
:10060C004FF080431B684FF0804243F001031360AE
:10061C001C20FFF7B3FF00BF80BD00BF00100240DD
:10062C00A815000880B500AF4FF080431B6903F09C
:10063C000103002B4AD04FF080431B694FF08042DE
:10064C0023F001031361224B1A68224913461B0144
:10065C0013440B4458681E4B1A681E4913461B0161
:10066C0013440B4408331978194B1A6813461B01B1
:10067C0013440833174A134401331A46FFF7C6FDD7
:10068C00134B1B680133124A1360134B1B685A1E21
:10069C000F4B1B689A4202D80D4B00221A604FF088
:1006AC00804347229A620A4B1A680A4913461B0177
:1006BC0013440B441B68642202FB03F34FF080428B
:1006CC00013BD3624FF0804300225A6200BF80BDD1
:1006DC0030000020A81500080000002080B400AFF6
:1006EC001C4B9B691B4A43F004039361194B9B6998
:1006FC00184A43F480439361174B5B68164A23F006
:10070C00C0035360144B5B68134A43F0800353607F
:10071C00114B5B68104A43F0300353600E4B5B681F
:10072C000D4A23F4407353600B4B5B680A4A43F445
:10073C0080635360094B41F67E529A60074BDB682D
:10074C00064A43F4005343F00C03D36000BFBD468C
:10075C0080BC704700100240000801400038014086
:10076C00FFF706FF0B480C490C4A002302E0D45853
:10077C00C4500433C4188C42F9D3094A094C0023E1
:10078C0001E013600432A242FBD300F0D7FEFFF766
:10079C00EFFD7047000000201000002044A4010869
:1007AC001000002038000020FEE7000080B500AFEC
:1007BC00084B1B68074A43F010031360032000F03A
:1007CC0007F90F2000F008F8FFF76CFE002318461D
:1007DC0080BD00BF0020024080B582B000AF7860C1
:1007EC00124B1A68124B1B7819464FF47A73B3FBF1
:1007FC00F1F3B2FBF3F3184600F011F90346002BAA
:10080C0001D001230EE07B680F2B0AD800227968F7
:10081C004FF0FF3000F0E7F8064A7B6813600023C6
:10082C0000E0012318460837BD4680BD04000020B7
:10083C000C0000200800002080B400AF054B1B7892
:10084C001A46054B1B681344034A136000BFBD4690
:10085C0080BC70470C0000203400002080B400AF36
:10086C00024B1B681846BD4680BC70473400002004
:10087C0080B485B000AF78607B6803F00703FB6041
:10088C000C4BDB68BB60BA684FF6FF031340BB60D0
:10089C00FB681A02BB68134343F0BF6343F4003395
:1008AC00BB60044ABB68D36000BF1437BD4680BC34
:1008BC00704700BF00ED00E080B400AF044BDB6874
:1008CC001B0A03F007031846BD4680BC704700BFE7
:1008DC0000ED00E080B483B000AF03463960FB71DB
:1008EC0097F90730002B0ADB3B68DAB20C4997F911
:1008FC0007301201D2B20B4483F800230AE03B68A4
:10090C00DAB20849FB7903F00F03043B1201D2B2AF
:10091C000B441A7600BF0C37BD4680BC704700BF35
:10092C0000E100E000ED00E080B489B000AFF860B9
:10093C00B9607A60FB6803F00703FB61FB69C3F1E4
:10094C000703042B28BF0423BB61FB690433062B6C
:10095C0002D9FB69033B00E000237B614FF0FF32BF
:10096C00BB6902FA03F3DA43BB681A407B699A400D
:10097C004FF0FF317B6901FA03F3D9437B680B40DD
:10098C00134318462437BD4680BC704780B582B0EF
:10099C0000AF78607B68013BB3F1807F01D301230A
:1009AC000FE00A4A7B68013B53600F214FF0FF3088
:1009BC00FFF790FF054B00229A60044B07221A6048
:1009CC00002318460837BD4680BD00BF10E000E08C
:1009DC0080B582B000AF78607868FFF749FF00BF40
:1009EC000837BD4680BD80B586B000AF0346B96000
:1009FC007A60FB7300237B61FFF75EFF78617A6896
:100A0C00B9687869FFF790FF024697F90F301146E5
:100A1C001846FFF75FFF00BF1837BD4680BD80B595
:100A2C0082B000AF78607868FFF7B0FF03461846D5
:100A3C000837BD4680BD000080B48BB000AF786035
:100A4C00396000237B6200233B6269E101227B6AEF
:100A5C0002FA03F3FB613B681B68FA691340BB6144
:100A6C00BA69FB699A4240F058813B685B689A4AC4
:100A7C0093425ED0984A934275D8984A934258D084
:100A8C00964A93426FD8964A934252D0944A9342D4
:100A9C0069D8944A93424CD0924A934263D8924A72
:100AAC00934246D0904A93425DD8122B2AD8122BEF
:100ABC0059D801A252F823F03F0B0008190B00087B
:100ACC002B0B00086D0B0008730B0008730B000850
:100ADC00730B0008730B0008730B0008730B0008F2
:100AEC00730B0008730B0008730B0008730B0008E2
:100AFC00730B0008730B0008730B0008210B000824
:100B0C00350B0008794A934213D02CE03B68DB6824
:100B1C003B6229E03B68DB6804333B6224E03B68C2
:100B2C00DB6808333B621FE03B68DB680C333B62DD
:100B3C001AE03B689B68002B02D104233B6213E054
:100B4C003B689B68012B05D108233B627B68FA69E3
:100B5C001A6109E008233B627B68FA695A6103E079
:100B6C0000233B6200E000BFBB69FF2B01D87B6810
:100B7C0001E07B6804337B61BB69FF2B02D87B6A85
:100B8C009B0002E07B6A083B9B003B617B691A6817
:100B9C000F213B6901FA03F3DB431A40396A3B69C5
:100BAC0001FA03F31A437B691A603B685B6803F034
:100BBC008053002B00F0B1804D4B9B694C4A43F0A5
:100BCC00010393614A4B9B6903F00103BB60BB6853
:100BDC00484A7B6A9B08023352F82330FB607B6ADD
:100BEC0003F003039B000F2202FA03F3DB43FA68C2
:100BFC001340FB607B68404A934213D07B683F4AAA
:100C0C0093420DD07B683E4A934207D07B683D4AA5
:100C1C00934201D1032306E0042304E0022302E003
:100C2C00012300E000237A6A02F003029200934051
:100C3C00FA681343FB602F497B6A9B080233FA68FE
:100C4C0041F823203B685B6803F48013002B06D02B
:100C5C002D4B9A682C49BB6913438B6006E02A4BD9
:100C6C009A68BB69DB43284913408B603B685B681F
:100C7C0003F40013002B06D0234BDA682249BB691E
:100C8C001343CB6006E0204BDA68BB69DB431E499B
:100C9C001340CB603B685B6803F40033002B06D039
:100CAC00194B5A681849BB6913434B6006E0164B45
:100CBC005A68BB69DB43144913404B603B685B6863
:100CCC0003F48033002B21D00F4B1A680E49BB69FB
:100CDC0013430B6021E000BF000032100000311004
:100CEC000000221000002110000012100000111052
:100CFC00001002400000014000080140000C0140BF
:100D0C000010014000140140000401400B4B1A6814
:100D1C00BB69DB43094913400B607B6A01337B627F
:100D2C003B681A687B6A22FA03F3002B7FF48EAEC1
:100D3C0000BF00BF2C37BD4680BC7047000401408B
:100D4C0080B483B000AF78600B467B8013467B7019
:100D5C007B78002B03D07A887B681A6103E07B8850
:100D6C001A047B681A6100BF0C37BD4680BC704703
:100D7C0080B586B000AF78607B68002B01D1012371
:100D8C0072E27B681B6803F00103002B00F0878084
:100D9C00924B5B6803F00C03042B0CD08F4B5B68FD
:100DAC0003F00C03082B12D18C4B5B6803F48033DB
:100DBC00B3F5803F0BD1894B1B6803F40033002B38
:100DCC006CD07B685B68002B68D101234CE27B689C
:100DDC005B68B3F5803F06D1804B1B687F4A43F4B8
:100DEC00803313602EE07B685B68002B0CD17B4B4F
:100DFC001B687A4A23F480331360784B1B68774A5C
:100E0C0023F4802313601DE07B685B68B3F5A02F8F
:100E1C000CD1724B1B68714A43F4802313606F4BE7
:100E2C001B686E4A43F4803313600BE06B4B1B68FA
:100E3C006A4A23F480331360684B1B68674A23F4B7
:100E4C00802313607B685B68002B13D0FFF706FDD3
:100E5C00386108E0FFF702FD02463B69D31A642BA8
:100E6C0001D9032300E25D4B1B6803F40033002B14
:100E7C00F0D014E0FFF7F2FC386108E0FFF7EEFC6D
:100E8C0002463B69D31A642B01D90323ECE1534B83
:100E9C001B6803F40033002BF0D100E000BF7B682B
:100EAC001B6803F00203002B63D04C4B5B6803F010
:100EBC000C03002B0BD0494B5B6803F00C03082B85
:100ECC001CD1464B5B6803F48033002B16D1434B8B
:100EDC001B6803F00203002B05D07B681B69012BF8
:100EEC0001D00123C0E13D4B1B6823F0F8027B6865
:100EFC005B69DB00394913430B603AE07B681B6983
:100F0C00002B20D0364B01221A60FFF7A7FC38616A
:100F1C0008E0FFF7A3FC02463B69D31A022B01D968
:100F2C000323A1E12D4B1B6803F00203002BF0D02F
:100F3C002A4B1B6823F0F8027B685B69DB002749AE
:100F4C0013430B6015E0264B00221A60FFF786FC5A
:100F5C00386108E0FFF782FC02463B69D31A022B8A
:100F6C0001D9032380E11D4B1B6803F00203002B06
:100F7C00F0D17B681B6803F00803002B3AD07B6828
:100F8C009B69002B19D0174B01221A60FFF766FCE6
:100F9C00386108E0FFF762FC02463B69D31A022B6A
:100FAC0001D9032360E10D4B5B6A03F00203002BB4
:100FBC00F0D0012000F09CFA1CE00A4B00221A60D1
:100FCC00FFF74CFC38610FE0FFF748FC02463B6929
:100FDC00D31A022B08D9032346E100BF00100240AC
:100FEC000000424280044242924B5B6A03F00203CF
:100FFC00002BE9D17B681B6803F00403002B00F085
:10100C00A6800023FB758B4BDB6903F08053002B10
:10101C000DD1884BDB69874A43F08053D361854BF4
:10102C00DB6903F08053BB60BB680123FB75824B0B
:10103C001B6803F48073002B18D17F4B1B687E4A0E
:10104C0043F480731360FFF709FC386108E0FFF785
:10105C0005FC02463B69D31A642B01D9032303E137
:10106C00754B1B6803F48073002BF0D07B68DB6836
:10107C00012B06D16F4B1B6A6E4A43F001031362BE
:10108C002DE07B68DB68002B0CD16A4B1B6A694A2C
:10109C0023F001031362674B1B6A664A23F00403B7
:1010AC0013621CE07B68DB68052B0CD1614B1B6A5F
:1010BC00604A43F0040313625E4B1B6A5D4A43F0C3
:1010CC00010313620BE05B4B1B6A5A4A23F00103CA
:1010DC001362584B1B6A574A23F0040313627B6854
:1010EC00DB68002B15D0FFF7B9FB38610AE0FFF77E
:1010FC00B5FB02463B69D31A41F28832934201D9BF
:10110C000323B1E04B4B1B6A03F00203002BEED020
:10111C0014E0FFF7A3FB38610AE0FFF79FFB0246E0
:10112C003B69D31A41F28832934201D903239BE0E5
:10113C00404B1B6A03F00203002BEED1FB7D012B0D
:10114C0005D13C4BDB693B4A23F08053D3617B6870
:10115C00DB69002B00F08780364B5B6803F00C03D7
:10116C00082B61D07B68DB69022B46D1334B002204
:10117C001A60FFF773FB386108E0FFF76FFB02465C
:10118C003B69D31A022B01D903236DE0294B1B6851
:10119C0003F00073002BF0D17B681B6AB3F5803F22
:1011AC0008D1244B5B6823F400327B689B6821498F
:1011BC0013434B601F4B5B6823F474127B68196AF2
:1011CC007B685B6A0B431B4913434B601B4B01222F
:1011DC001A60FFF743FB386108E0FFF73FFB02465C
:1011EC003B69D31A022B01D903233DE0114B1B6839
:1011FC0003F00073002BF0D035E0104B00221A6086
:10120C00FFF72CFB386108E0FFF728FB02463B692F
:10121C00D31A022B01D9032326E0064B1B6803F0DB
:10122C000073002BF0D11EE07B68DB69012B07D12A
:10123C00012319E00010024000700040600042429F
:10124C000B4B5B68FB60FB6803F480327B681B6AAA
:10125C009A4206D1FB6803F470127B685B6A9A426F
:10126C0001D0012300E0002318461837BD4680BD8D
:10127C000010024080B584B000AF786039607B68A4
:10128C00002B01D10123D0E06A4B1B6803F007034C
:10129C003A689A4210D9674B1B6823F007026549DC
:1012AC003B6813430B60634B1B6803F007033A68FE
:1012BC009A4201D00123B8E07B681B6803F002035B
:1012CC00002B20D07B681B6803F00403002B05D097
:1012DC00594B5B68584A43F4E06353607B681B6866
:1012EC0003F00803002B05D0534B5B68524A43F4C0
:1012FC0060535360504B5B6823F0F0027B689B6833
:10130C004D4913434B607B681B6803F00103002BB2
:10131C0040D07B685B68012B07D1474B1B6803F4FB
:10132C000033002B15D101237FE07B685B68022B17
:10133C0007D1414B1B6803F00073002B09D101232B
:10134C0073E03D4B1B6803F00203002B01D101231A
:10135C006BE0394B5B6823F003027B685B683649B2
:10136C0013434B60FFF77AFAF8600AE0FFF776FA5E
:10137C000246FB68D31A41F28832934201D9032307
:10138C0053E02D4B5B6803F00C027B685B689B00A1
:10139C009A42EBD1274B1B6803F007033A689A4239
:1013AC0010D2244B1B6823F0070222493B681343DD
:1013BC000B60204B1B6803F007033A689A4201D07C
:1013CC00012332E07B681B6803F00403002B08D078
:1013DC00194B5B6823F4E0627B68DB6816491343A6
:1013EC004B607B681B6803F00803002B09D0124B81
:1013FC005B6823F460527B681B69DB000E49134366
:10140C004B6000F021F802460B4B5B681B0903F0A4
:10141C000F030A49CB5C22FA03F3094A1360094B08
:10142C001B681846FFF7D8F9002318461037BD463D
:10143C0080BD00BF002002400010024018A401082B
:10144C00040000200800002080B487B000AF002307
:10145C00FB600023BB6000237B6100237B600023C7
:10146C003B611E4B5B68FB60FB6803F00C03042BB9
:10147C0002D0082B03D027E0194B3B6127E0FB6817
:10148C009B0C03F00F03174AD35C7B60FB6803F4DF
:10149C008033002B10D0114B5B685B0C03F0010305
:1014AC00114AD35CBB607B680D4A03FB02F2BB683C
:1014BC00B2FBF3F37B6104E07B680C4A02FB03F3A1
:1014CC007B617B693B6102E0054B3B6100BF3B6983
:1014DC0018461C37BD4680BC704700BF0010024048
:1014EC0000127A0028A4010838A4010800093D0064
:1014FC0080B485B000AF78600A4B1B680A4AA2FB27
:10150C0003235B0A7A6802FB03F3FB6000BFFB68F2
:10151C005A1EFA60002BF9D100BF00BF1437BD462C
:10152C0080BC704704000020D34D62100346024477
:10153C00934200D1704703F8011BF9E770B5002600
:10154C000C4D0D4C641BA410A64209D100F01AF8E6
:10155C0000260A4D0A4C641BA410A64205D170BD8E
:10156C0055F8043B98470136EEE755F8043B98478D
:10157C000136F2E73CA401083CA401083CA4010894
:10158C0040A40108F8B500BFF8BC08BC9E467047E3
:0C159C00F8B500BFF8BC08BC9E467047C4
:1015A8000A0000002101000000FA0A004036627EAD
:1015B800FE04000000A800000000EAD4BF07896408
:1015C8005C0F02000000A700000000EFD45F7FFD61
:1015D800F5573E5D000000A70000000094D55F7F2E
:1015E800FDF5573E02000000A800000000C7D5BF67
:1015F800078964600F5E0000002101000000510BA4
:10160800004036627EFE03000000A70000000008CC
:10161800D65F7FFDF5673E02000000A800000000CD
:10162800EBD6BF078964620F64000000A7000000C2
:101638000081D75F7FFDF5673E03000000A800002A
:101648000000FED7BF078964620F60000000210117
:10165800000000940C004036627EFE03000000BECD
:10166800030000001C150701A8C008800200000044
:10167800A700000000CCD85F7FFDF5673E020000A0
:1016880000A800000000F8D8BF078964640F5D0057
:101698000000A7000000001CD95F7FFDF5673E032E
:1016A800000000A800000000C2D9BF078964680FC5
:1016B8005E0000002101000000870D004036627EB8
:1016C800FE02000000A7000000001ADA5F7FFDF5A7
:1016D800673E02000000A80000000081DABF078909
:1016E800646A0F62000000A70000000074DB5F7FDF
:1016F800FDF5673E02000000A80000000074DBBF93
:101708000789646E0F630000002101000000140EB9
:10171800004036627EFE06000000A700000000CBF5
:10172800DC5F7FFDF5673E02000000A800000000B6
:1017380076DCBF0789646C0F5C000000A70000001E
:10174800003BDD5F7FFDF5673E03000000A8000059
:10175800000065DDBF0789646C0F5E000000210191
:10176800000000A20F004036627EFE02000000A7C3
:1017780000000000B0DE5F7FFDF5673E030000005B
:10178800A800000000D7DEBF0789646C0F64000062
:1017980000A7000000006EDF5F7FFDF5673E0200D6
:1017A8000000A80000000044DFBF0789646E0F63D3
:1017B80000000021010000006C00004036627EFE3F
:1017C80004000000A80000000084D0BF07896472EC
:1017D8000F02000000A700000000A7D05F7FFDF502
:1017E800673E5F000000A7000000002FD15F7FFD6B
:1017F800F5673E03000000A800000000FED1BF0707
:101808008964720F5D0000002101000000000100E2
:101818004036627EFE02000000BE03000000011692
:101828000701A8C0088002000000A70000000042CD
:10183800D21F7FFDF5673E03000000A800000000EE
:1018480012D2BF078964720F430000007600001BA4
:101858000176000401010000001C000000A7000040
:101868000000C3D31F7FFDF5673E02000000A800FB
:1018780000000055D3BF0789646E0F630000002184
:10188800010000008F02004036627EFE0500000065
:10189800A700000000F9D41F7FFDF5673E02000095
:1018A80000A800000000E5D4BF0789646C0F5C0045
:1018B8000000A70000000082D51F7FFDF5673E02EB
:1018C800000000A800000000B7D5BF078964680FB2
:1018D8005F00000021010000007D03004036627EA9
:1018E800FE03000000A70000000011D61F7FFDF5D1
:1018F800673E02000000A800000000D3D6BF078999
:1019080064660F61000000A70000000098D71F7FE1
:10191800FDF5673E03000000A800000000FED7BFE9
:10192800078964620F630000002101000000C00401
:10193800004036627EFE04000000A8000000009B04
:10194800D8BF0789645E0F02000000A700000000EE
:10195800D5D81F7FFDF5673E5C000000A70000009A
:101968000005D91F7FFDF5673E03000000A80000B1
:101978000000D1D9BF0789645A0F5F000000210118
:10198800000000F705004036627EFE02000000A756
:10199800000000001ADA5F7FFDF5673E02000000D4
:1019A800A800000000DADABF078964540F64000059
:1019B80000A70000000074DB5F7FFDF5673E0300B1
:1019C8000000A80000000033DBBF078964520F60E5
:1019D8000000002101000000F006004036627EFE93
:1019E80002000000BE030000008D170701A8C00810
:1019F8008003000000A80000000031DCBF078964F4
:101A0800500F02000000A700000000CBDC5F7FFD44
:101A1800F5673E5D000000A7000000003BDD5F7F2A
:101A2800FDF5673E02000000A8000000001ADDBFB7
:101A3800078964540F5F0000002101000000A3071C
:101A4800004036627EFE03000000A700000000B0E0
:101A5800DE5F7FFDF5673E02000000A80000000081
:101A6800B4DEBF078964560F61000000A7000000BC
:101A7800006EDF5F7FFDF5673E02000000A80000F2
:101A880000006FDFBF078964580F63000000210161
:101A98000000006008004036627EFE06000000A7D5
:101AA80000000000A7D05F7FFDF5673E0200000040
:101AB800A8000000001BD0BF0789645A0F5C000013
:101AC80000A7000000002FD15F7FFDF5673E0200F0
:101AD8000000A80000000035D1BF078964540F5FDB
:101AE80000000021010000009F09004036627EFED0
:101AF80003000000A7000000005BD25F7FFDF567D0
:101B08003E02000000A800000000FDD2BF07896463
:101B1800520F61000000A700000000DAD35F7FFDCC
:101B2800F5673E02000000A8000000000ED3BF07C2
:101B38008964500F620000002101000000FA0A00C9
:101B48004036627EFE04000000A80000000016D4A3
:101B5800BF0789644E0F02000000A700000000E0E4
:101B6800D45F7FFDF5673E190000004106000000C4
:101B78006411214F130A559248000000A700000085
:101B8800009BD55F7FFDF5673E02000000A80000BE
:101B980000007CD5BF0789644E0F5D00000021015D
:101BA800000000510B004036627EFE02000000BEBD
:101BB8000300000077180701A8C008800200000091
:101BC800A70000000008D65F7FFDF5673E03000010
:101BD80000A800000000F8D6BF078964500F430032
:101BE80000007600001B0176000401010000001CC3
:101BF800000000A70000000081D75F7FFDF5673E69
:101C080002000000A800000000F1D7BF0789645255
:101C18000F610000002101000000940C00403662B2
:101C28007EFE06000000A800000000F7D8BF078964
:101C380064540F03000000A700000000CCD85F7FA9
:101C4800FDF5673E5C000000A7000000001CD95F9E
:101C58007FFDF5673E03000000A800000000BDD925
:101C6800BF078964500F6000000021010000008751
:101C78000D004036627EFE02000000A70000000052
:101C88001ADA5F7FFDF5673E02000000A800000039
:101C98000072DABF078964480F65000000A70000DA
:101CA800000074DB5F7FFDF5673E03000000A800BD
:101CB800000000CFDBBF078964400F5C00000021F3
:101CC80001000000140E004036627EFE0200000093
:101CD800A80000000043DCBF0789643A0F03000036
:101CE80000A700000000CBDC5F7FFDF5673E6200C7
:101CF8000000A7000000003BDD5F7FFDF5673E03A5
:101D0800000000A8000000004CDDBF078964380F00
:101D18005F0000002101000000A20F004036627E33
:101D2800FE02000000A700000000B0DE5F7FFDF5A6
:101D3800673E02000000A800000000FEDEBF078921
:101D480064380F0E000000400600000002816FB7E3
:101D58007620032859000000A7000000006EDF5F0E
:101D68007FFDF5673E02000000A80000000071DF5B
:101D7800BF078964380F5900000021010000006C7A
:101D880000004036627EFE03000000BE0300000033
:101D980054190701A8C0088002000000A70000002D
:101DA8000016D05F7FFDF9673E02000000A8000022
:101DB800000051D0BF078964340F63000000A700FA
:101DC8000000009ED15F7FFDF9673E02000000A879
:101DD800000000000FD1BF078964320F5E000000C9
:101DE80021010000000001004036627EFE02000072
:101DF80000A700000000EAD25F7FFDF9673E0300FC
:101E08000000A800000000C7D2BF078964340F6330
:101E1800000000A7000000006BD35F7FFDF9673E5C
:101E280003000000A80000000034D3BF078964360F
:101E38000F5B00000021010000008F0200403662A5
:101E48007EFE05000000A70000000051D45F7FFD62
:101E5800F9673E03000000A800000000CCD4BF07CB
:101E68008964380F63000000A7000000002AD55FCE
:101E78007FFDF9673E02000000A8000000009ED523
:101E8800BF0789643C0F5D00000021010000007D50
:101E980003004036627EFE02000000A7000000003A
:101EA800B9D65F7FFDF9673E03000000A800000077
:101EB80000B2D6BF0789643E0F64000000A7000087
:101EC800000030D75F7FFDF9673E02000000A800E0
:101ED8000000000DD7BF078964400F5A0000002199
:101EE80001000000C004004036627EFE04000000CD
:101EF800A8000000002FD8BF078964400F02000027
:101F080000A700000000CCD85F7FFDF5673E6700A2
:101F18000000A7000000001CD95F7FFDF5673E03A5
:101F2800000000A8000000005DD9BF078964400FC9
:101F3800590000002101000000F705004036627ECC
:101F4800FE02000000BE030000009F1A0701A8C09F
:101F5800088002000000A7000000001ADA5F7FFD79
:101F6800F5673E03000000A8000000001EDABF0766
:101F78008964420F430000007600001B01760004CC
:101F880001010000001C000000A70000000074DB35
:101F98005F7FFDF5673E02000000A800000000D347
:101FA800DBBF078964420F600000002101000000C8
:101FB800F006004036627EFE05000000A800000022
:101FC80000CDDCBF078964420F03000000A70000B2
:101FD8000000CBDC5F7FFDF5673E61000000A700D5
:101FE8000000003BDD5F7FFDF5673E03000000A8B1
:101FF80000000000DEDDBF078964420F5C000000BE
:102008002101000000A307004036627EFE020000A6
:1020180000A700000000B0DE5F7FFDF5673E03000B
:102028000000A80000000048DEBF078964440F6173
:10203800000000A7000000006EDF5F7FFDF5673E2F
:1020480002000000A800000000DBDFBF078964462B
:102058000F600000002101000000600800403662A7
:102068007EFE03000000A800000000DFD0BF078943
:10207800644C0F02000000A700000000A7D05F7F9B
:10208800FDF5673E65000000A7000000002FD15F46
:102098007FFDF5673E02000000A8000000000DD19A
:1020A800BF078964500F5C00000021010000009FF9
:1020B80009004036627EFE04000000A70000000010
:1020C8005BD25F7FFDF5673E03000000A8000000BB
:1020D80000D9D2BF078964540F61000000A700002F
:1020E8000000DAD35F7FFDF5673E02000000A8001C
:1020F8000000002AD3BF078964560F5E0000002144
:1021080001000000FA0A004036627EFE020000006C
:10211800BE03000000E91B0701A8C00880030000F7
:1021280000A700000000E0D45F7FFDF5673E0200D5
:102138000000A80000000086D4BF078964560F631A
:10214800000000A7000000009BD55F7FFDF5673EFB
:1021580003000000A800000000B8D5BF0789645834
:102168000F5B0000002101000000510B00403662A7
:102178007EFE02000000A70000000008D65F7FFD79
:10218800F5673E03000000A800000000C0D6BF07A6
:102198008964540F60000000A70000000081D75F29
:1021A8007FFDF5673E03000000A800000000D5D7BA
:1021B800BF078964540F60000000210100000094EB
:1021C8000C004036627EFE05000000A700000000FB
:1021D800CCD85F7FFDF5673E02000000A800000034
:1021E80000CFD8BF078964500F63000000A7000024
:1021F80000001CD95F7FFDF5673E02000000A800C3
:1022080000000015D9BF0789644C0F5C000000214D
:1022180001000000870D004036627EFE05000000C8
:10222800A7000000001ADA5F7FFDF5673E02000094
:1022380000A80000000072DABF078964480F5F0039
:102248000000A70000000074DB5F7FFDF5673E0219
:10225800000000A800000000F7DBBF078964440FF6
:102268005F0000002101000000140E004036627E6D
:10227800FE03000000A800000000CDDCBF07896451
:10228800420F02000000A700000000CBDC5F7FFDCA
:10229800F5673E68000000A7000000003BDD5F7F97
:1022A800FDF5673E02000000A800000000C2DDBF87
:1022B800078964400F5A0000002101000000A20FA6
:1022C800004036627EFE02000000BE030000006C83
:1022D8001C0701A8C0088003000000A70000000038
:1022E800B0DE5F7FFDF5673E02000000A800000039
:1022F800006CDEBF078964420F43000000760000CF
:102308001B0176000401010000001B000000A7006B
:102318000000006EDF5F7FFDF5673E03000000A848
:1023280000000000E3DFBF078964420F600000007F
:1023380021010000006C00004036627EFE050000AE
:1023480000A8000000008BD0BF078964420F02007C
:102358000000A700000000A7D05F7FFDF5673E6280
:10236800000000A7000000002FD15F7FFDF5673E49
:1023780002000000A800000000EDD1BF07896440FA
:102388000F5D0000002101000000000100403662DE
:102398007EFE02000000A7000000005BD25F7FFD08
:1023A800F5673E02000000A8000000001DD2BF072C
:1023B8008964420F62000000A700000000DAD35FC2
:1023C8007FFDF5673E02000000A800000000D6D39C
:1023D800BF078964440F6000000021010000008FDE
:1023E80002004036627EFE03000000A800000000E4
:1023F80032D4BF078964480F02000000A70000001C
:1024080000E0D45F7FFDF5673E63000000A7000091
:1024180000009BD55F7FFDF5673E02000000A80025
:1024280000000058D5BF078964480F5F00000021ED
:10243800010000007D03004036627EFE02000000BD
:10244800A70000000008D65F7FFDF5673E03000087
:1024580000A8000000003CD6BF078964460F64004E
:102468000000A70000000081D75F7FFDF5673E02EE
:10247800000000A80000000035D7BF078964440F9A
:10248800600000002101000000C004004036627EA8
:10249800FE03000000BE03000000D71D0701A8C00E
:1024A800088002000000A700000000CCD85F7FFD74
:1024B800F5673E03000000A8000000000BD8BF0726
:1024C8008964460F5C000000A7000000001CD95F6B
:1024D8007FFDF5673E02000000A80000000079D9E2
:1024E800BF078964460F600000002101000000F763
:1024F80005004036627EFE03000000A700000000D1
:102508001ADA5F7FFDF5673E02000000A8000000B0
:10251800006EDABF0789644A0F60000000A7000058
:10252800000074DB5F7FFDF5673E02000000A80035
:10253800000000A3DBBF0789644A0F630000002185
:1025480001000000F006004036627EFE0600000032
:10255800A800000000A1DCBF078964480F03000041
:1025680000A700000000CBDC5F7FFDF5673E5A0046
:102578000000A7000000003BDD5F7FFDF5673E021D
:10258800000000A800000000E6DDBF078964460FD0
:10259800620000002101000000A307004036627EAF
:1025A800FE02000000A700000000B0DE5F7FFDF51E
:1025B800673E03000000A80000000048DEBF07894E
:1025C80064440F60000000A7000000006EDF5F7F1A
:1025D800FDF5673E02000000A800000000DBDFBF39
:1025E800078964460F6300000021010000006008AD
:1025F800004036627EFE03000000A800000000B321
:10260800D0BF078964460F02000000A70000000041
:10261800A7D05F7FFDF5673E100000004006000070
:102628000002816FB7762003284F000000A7000042
:1026380000002FD15F7FFDF5673E02000000A80073
:102648000000009DD1BF078964480F610000002188
:10265800010000009F09004036627EFE0200000073
:10266800BE03000000C81E0701A8C00880020000C1
:1026780000A7000000005BD25F7FFDF5673E030006
:102688000000A80000000025D2BF078964460F405B
:102698000000007600001B01760004010100000024
:1026A8001D000000A700000000DAD35F7FFDF5677A
:1026B8003E03000000A800000000EED3BF078964B5
:1026C800400F5D0000002101000000FA0A004036BA
:1026D800627EFE0A000000A800000000F4D4BF07D4
:1026E80089643C0F03000000A700000000E0D45FED
:1026F8007FFDF5673E59000000A7000000009BD54C
:102708005F7FFDF5673E03000000A800000000BAE7
:10271800D5BF0789643A0F6200000021010000005C
:10272800510B004036627EFE02000000A700000048
:102738000008D65F7FFDF5673E03000000A8000093
:10274800000096D6BF078964380F5E000000A70016
:1027580000000081D75F7FFDF5673E02000000A8FA
:1027680000000000A7D7BF0789643E0F6000000083
:102778002101000000940C004036627EFE03000038
:1027880000A8000000002FD8BF078964400F02008E
:102798000000A700000000CCD85F7FFDF5673E620F
:1027A800000000A7000000001CD95F7FFDF5673E10
:1027B80002000000A800000000F7D9BF0789643EA6
:1027C8000F620000002101000000870D0040366202
:1027D8007EFE02000000A7000000001ADA5F7FFDFD
:1027E800F5673E03000000A800000000A8DABF0754
:1027F80089643E0F60000000A70000000074DB5FE2
:102808007FFDF5673E02000000A8000000005DDBC8
:10281800BF0789643A0F5E00000021010000001420
:102828000E004036627EFE03000000BE030000007A
:10283800C51F0701A8C0088002000000A80000000A
:10284800005FDCBF078964380F02000000A70000A2
:102858000000CBDC5F7FFDF5673E5F000000A7004E
:102868000000003BDD5F7FFDF5673E03000000A828
:102878000000000004DDBF078964340F6200000017
:102888002101000000A20F004036627EFE03000016
:1028980000A70000000001DE5F7FFDF9673E02002F
:1028A8000000A8000000008EDEBF078964300F5EBC
:1028B800000000A700000000DFDF5F7FFDF9673E32
:1028C80002000000A800000000B5DFBF0789642EE1
:1028D8000F6000000021010000006C00004036621B
:1028E8007EFE05000000A70000000016D05F7FFDF7
:1028F800F9673E02000000A800000000DDD0BF0715
:1029080089642E0F60000000A7000000009ED15FC0
:102918007FFDF9673E02000000A800000000A7D173
:10292800BF0789642E0F630000002101000000002A
:1029380001004036627EFE02000000A70000000091
:10294800EAD25F7FFDF9673E02000000A8000000A0
:10295800004BD2BF0789642E0F5E000000A700005D
:1029680000006BD35F7FFDF9673E02000000A800FE
:102978000000009CD3BF0789642A0F5F0000002174
:10298800010000008F02004036627EFE0300000056
:10299800A80000000078D4BF078964260F03000050
:1029A80000A70000000051D45F7FFDF9673E640076
:1029B8000000A7000000002AD55F7FFDF9673E03ED
:1029C800000000A8000000002AD5BF078964220F74
:1029D8005E00000021010000007D03004036627E99
:1029E800FE02000000BE030000007C100701A8C022
:1029F800088003000000A700000000B9D65F7FFD33
:102A0800F9673E02000000A8000000005DD6BF077D
:102A180089641E0F410000007600001B0176000447
:102A280001010000001C000000A70000000030D7D2
:102A38005F7FFDF9673E02000000A8000000001358
:102A4800D7BF078964200F60000000210100000043
:102A5800C004004036627EFE05000000A8000000A9
:102A68000009D8BF078964240F02000000A70000EE
:102A780000007DD85F7FFDF9673E5F000000A7007A
:102A8800000000ADD95F7FFDF9673E03000000A894
:102A98000000000067D9BF078964260F60000000A6
:102AA8002101000000F705004036627EFE020000AA
:102AB80000A70000000062EA5F7FFDF9673E03009F
:102AC8000000A80000000038DABF078964260F63F9
:102AD800000000A7000000000CEB5F7FFDF9673ED7
:102AE80002000000A800000000F5DBBF078964268B
:102AF8000F5F0000002101000000F0060040366270
:102B08007EFE03000000A800000000EBDCBF078980
:102B180064260F02000000A70000000098EC9F7FC9
:102B2800FDF9673E63000000A70000000068ED9F04
:102B38007FFDF9673E05000000A800000000ACDD3D
:102B4800BF078964280F590000002101000000A375
:102B580007004036627EFE02000000A70000000069
:102B6800E3EE9F7FFDF9673E02000000A800000029
:102B78000002DEBF0789642A0F67000000A7000073
:102B880000003DEF9F7FFDF9673E03000000A800AD
:102B9800000000A9DFBF0789642C0F5C000000213A
:102BA800010000006008004036627EFE020000005E
:102BB800BE0300000008110701A8C0088002000039
:102BC80000A800000000C1D0BF0789642C0F0300D3
:102BD8000000A700000000DFE05F7FFDF9673E63AB
:102BE800000000A70000000057E15F7FFDF9673E85
:102BF80002000000A800000000BBD1BF0789642CB8
:102C08000F5A00000021010000009F0900403662B1
:102C18007EFE02000000A70000000023E25F7FFDA7
:102C2800F9673E03000000A80000000057D2BF0764
:102C380089642C0F64000000A700000000A2E35F75
:102C48007FFDF9673E02000000A800000000B8D32D
:102C5800BF0789642C0F5F0000002101000000FA03
:102C68000A004036627EFE05000000A70000000052
:102C780098E45F7FFDF9673E02000000A8000000AD
:102C88000014D4BF0789642C0F62000000A700005D
:102C98000000E3E55F7FFDF9673E03000000A80040
:102CA8000000007ED5BF0789642C0F5A0000002160
:102CB80001000000510B004036627EFE0300000058
:102CC800A70000000070E65F7FFDF9673E02000084
:102CD80000A8000000004ED6BF0789642C0F6500CD
:102CE8000000A700000000F9E75F7FFDF9673E05D7
:102CF800000000A80000000063D7BF078964280F00
:102D0800590000002101000000940C004036627E4A
:102D1800FE02000000A80000000009D8BF0789646F
:102D2800240F02000000A700000000B4E85F7FFD48
:102D3800F9673E1A0000004106000000C812214F42
:102D4800130A55924B000000A70000000064E95FD9
:102D58007FFDF9673E02000000A80000000043D98B
:102D6800BF078964200F5D00000021010000008773
:102D78000D004036627EFE02000000BE0300000027
:102D880067120701A8C0088003000000A700000020
:102D98000062EA5F7FFDF9673E02000000A80000BC
:102DA800000047DABF0789641E0F44000000760060
:102DB800001B0176000401010000001E000000A7AE
:102DC800000000000CEB5F7FFDF9673E0300000088
:102DD800A8000000008ADBBF0789641E0F5C0000A2
:102DE800002101000000140E004036627EFE05003E
:102DF8000000A800000000F7DCBF078964240F0268
:102E0800000000A700000000B3EC5F7FFDF9673EFB
:102E18005F000000A70000000068ED9F7FFDF967D4
:102E28003E03000000A800000000F8DDBF07896429
:102E3800260F5E0000002101000000A20F004036AE
:102E4800627EFE02000000A700000000E3EE9F7F04
:102E5800FDF9673E03000000A8000000004ADEBF3D
:102E6800078964260F66000000A7000000003DEFF8
:102E78009F7FFDF9673E03000000A800000000D90D
:102E8800DFBF078964240F5C0000002101000000F7
:102E98006C00004036627EFE02000000A8000000C0
:102EA8000089D0BF078964200F02000000A7000036
:102EB8000000F4E09F7FFDF9673E62000000A70074
:102EC80000000058E15F7FFDF9573E02000000A8AE
:102ED80000000000F3D1BF078964200F5E000000E6
:102EE80021010000000001004036627EFE03000060
:102EF80000A7000000002CE25F7FFDF9573E0200AA
:102F08000000A80000000044D2BF0789641E0F0F0C
:102F1800000000400600000002816FB776200328F9
:102F280058000000A700000000ADE35F7FFDF957DF
:102F38003E03000000A800000000B7D3BF07896463
:102F48001C0F5A00000021010000008F02004036CB
:102F5800627EFE03000000BE030000009413070118
:102F6800A8C0088002000000A70000000097E45FE6
:102F78007FFDF9573E02000000A80000000040D481
:102F8800BF078964220F60000000A700000000C886
:102F9800E59F7FFDF9673E02000000A800000000E1
:102FA80012D5BF078964260F5F00000021010000C9
:102FB800007D03004036627EFE03000000A700008B
:102FC80000005BE69F7FFDF9673E02000000A80055
:102FD8000000004ED6BF0789642C0F63000000A7CD
:102FE80000000000F6E75F7FFDF9573E0200000091
:102FF800A800000000F3D7BF078964300F5E000007
:10300800002101000000C004004036627EFE050079
:103018000000A800000000CDD8BF078964320F0265
:10302800000000A700000000BBE85F7FFDF9573EE5
:1030380060000000A70000000040E99F7FFDF957ED
:103048003E02000000A800000000BFD9BF07896445
:10305800320F5F0000002101000000F70500403634
:10306800627EFE05000000A70000000046EA9F7F80
:10307800FDF9573E03000000A800000000E0DABF99
:10308800078964320F60000000A70000000028EBE9
:103098009F7FFDF9573E02000000A80000000015C0
:1030A800DBBF078964360F5E0000002101000000C5
:1030B800F006004036627EFE03000000A800000013
:1030C8000017DCBF078964340F02000000A7000066
:1030D800000097EC9F7FFDF9573E65000000A700B0
:1030E8000000004CED5F7FFDF9573E03000000A88B
:1030F800000000003CDDBF078964300F5F0000005E
:103108002101000000A307004036627EFE03000094
:1031180000BE0300000063140701A8C00880020075
:103128000000A700000000C7EE5F7FFDF9573E03CF
:10313800000000A8000000008EDEBF078964300F81
:103148003E0000007600001B01760004010100002B
:10315800001D000000A70000000019EF5F7FFDF9C7
:10316800573E02000000A800000000A9DFBF078941
:10317800642C0F610000002101000000600800407D
:1031880036627EFE05000000A800000000C1D0BF26
:103198000789642C0F02000000A700000000D0E09F
:1031A8005F7FFDF9573E5F000000A7000000005850
:1031B800E15F7FFDF9573E02000000A80000000013
:1031C80013D1BF078964300F63000000210100009C
:1031D800009F09004036627EFE02000000A7000042
:1031E80000002CE25F7FFDF9573E02000000A800B6
:1031F800000000E3D2BF078964320F5E000000A719
:1032080000000000ADE35F7FFDF9573E02000000BB
:10321800A80000000034D3BF078964360F6200009D
:10322800002101000000FA0A004036627EFE030019
:103238000000A800000000D0D4BF0789643A0F023C
:10324800000000A70000000097E45F7FFDF9573EEB
:1032580060000000A700000000ECE55F7FFDF95763
:103268003E03000000A80000000082D5BF07896463
:103278003E0F620000002101000000510B004036A3
:10328800627EFE02000000A70000000054E69F7F57
:10329800FDF9573E02000000A80000000018D6BF44
:1032A800078964400F5F000000A7000000006CE77A
:1032B8009F7FFDF5573E03000000A80000000011A5
:1032C800D7BF078964420F61000000210100000098
:1032D800940C004036627EFE02000000BE0300002F
:1032E800001C150701A8C0088003000000A7000003
:1032F800000021E89F7FFDF5573E02000000A8006E
:103308000000000BD8BF078964460F5D000000A7C6
:1033180000000000F1E99F7FFDF5573E0200000024
:10332800A80000000079D9BF078964460F6500002E
:10333800002101000000870D004036627EFE020079
:103348000000A700000000DCEA5F7FFDF5573E02A1
:10335800000000A8000000006EDABF0789644A0F69
:103368005B000000A700000000B2EB5F7FFDF5578F
:103378003E02000000A80000000087DBBF07896448
:103388004C0F630000002101000000140E004036BD
:10339800627EFE07000000A80000000099DCBF075D
:1033A80089644C0F03000000A7000000000DEC5FCB
:1033B8007FFDF5573E59000000A700000000FDED15
:1033C8005F7FFDF5573E03000000A800000000964F
:1033D800DDBF0789644E0F5F000000210100000077
:1033E800A20F004036627EFE03000000A700000026
:1033F8000076EE5F7FFDF5573E02000000A8000052
:10340800000024DEBF0789644E0F61000000A7009A
:10341800000000A8EF5F7FFDF5573E03000000A8FD
:103428000000000003DFBF078964520F620000003C
:1034380021010000006C00004036627EFE0300009F
:1034480000A80000000053D0BF078964560F03008E
:103458000000A700000000A8D05F7FFDF5573E6080
:10346800000000A70000000020D15F7FFDF5573E57
:1034780002000000A8000000007DD1BF0789645841
:103488000F5D0000002101000000000100403662CD
:103498007EFE02000000BE0300000001160701A81E
:1034A800C0088003000000A70000000054D25F7F1E
:1034B800FDF5573E02000000A80000000091D2BFB1
:1034C800078964580F430000007600001B0176004E
:1034D8000401010000001C000000A700000000D546
:1034E800D35F7FFDF5573E02000000A800000000F2
:1034F8007ED3BF078964580F6300000021010000D4
:10350800008F02004036627EFE05000000A8000021
:103518000000CED4BF0789645A0F02000000A7003C
:10352800000000EFD45F7FFDF5573E5C000000A768
:103538000000000094D55F7FFDF5573E02000000B3
:10354800A800000000B8D5BF078964580F5F0000C5
:103558000021010000007D03004036627EFE02006B
:103568000000A70000000007D65F7FFDF5573E0268
:10357800000000A800000000DCD6BF078964560FD1
:1035880063000000A7000000008ED75F7FFDF5579D
:103598003E03000000A800000000D5D7BF078964DB
:1035A800540F620000002101000000C004004036F2
:1035B800627EFE04000000A800000000D3D8BF0708
:1035C8008964520F03000000A700000000C3D85F01
:1035D8007FFDF5573E5D000000A70000000013D9ED
:1035E8005F7FFDF5573E02000000A800000000A123
:1035F800D9BF078964520F5F000000210100000055
:10360800F705004036627EFE02000000A7000000B9
:10361800001ADA5F7FFDF5673E03000000A800008E
:103628000000FEDABF078964520F60000000A7009F
:1036380000000074DB5F7FFDF5673E03000000A813
:103648000000000017DBBF078964540F600000000A
:103658002101000000F006004036627EFE030000F3
:1036680000BE030000008D170701A8C008800200F3
:103678000000A700000000CBDC5F7FFDF5673E037C
:10368800000000A80000000041DCBF078964580F53
:103698005D000000A7000000003BDD5F7FFDF567CF
:1036A8003E02000000A8000000001ADDBF07896480
:1036B800540F5E0000002101000000A307004036FF
:1036C800627EFE02000000A700000000B0DE5F7FFF
:1036D800FDF5673E03000000A80000000024DEBFDF
:1036E8000789644E0F61000000A7000000006EDF2C
:1036F8005F7FFDF5673E02000000A8000000009310
:10370800DFBF0789644A0F64000000210100000040
:103718006008004036627EFE06000000A700000038
:1037280000A7D05F7FFDF5673E02000000A80000FB
:103738000000B3D0BF078964460F5B000000A700F4
:103748000000002FD15F7FFDF5673E03000000A851
:1037580000000000C9D1BF078964460F5E00000061
:1037680021010000009F09004036627EFE02000031
:1037780000A7000000005BD25F7FFDF5673E0300F5
:103788000000A80000000071D2BF078964480F62DA
:10379800000000A700000000DAD35F7FFDF5673E58
:1037A80002000000A80000000082D3BF0789644A15
:1037B8000F610000002101000000FA0A0040366293
:1037C8007EFE04000000A80000000032D4BF078974
:1037D80064480F02000000A700000000E0D45F7FEB
:1037E800FDF5673E15000000400600000002816FED
:1037F800B7762003284C000000A7000000009BD5E6
:103808005F7FFDF5673E03000000A8000000001080
:10381800D5BF078964440F5D000000210100000046
:10382800510B004036627EFE02000000BE0300001D
:103838000077180701A8C0088002000000A7000050
:10384800000008D65F7FFDF5673E03000000A80072
:1038580000000004D6BF078964420F4300000076C9
:1038680000001B0176000401010000001C0000009C
:10387800A70000000081D75F7FFDF5673E030000C9
:1038880000A80000000035D7BF078964440F600016
:1038980000002101000000940C004036627EFE0406
:1038A800000000A700000000CCD85F7FFDF5673E50
:1038B80003000000A8000000000BD8BF0789644679
:1038C8000F5E000000A7000000001CD95F7FFDF517
:1038D800673E03000000A80000000031D9BF078937
:1038E800644A0F5E0000002101000000870D0040BF
:1038F80036627EFE02000000A7000000001ADA5FB0
:103908007FFDF5673E02000000A80000000056DABF
:10391800BF0789644E0F65000000A700000000740F
:10392800DB5F7FFDF5673E02000000A80000000095
:103938009BDBBF0789644E0F5E0000002101000079
:1039480000140E004036627EFE04000000A800004D
:10395800000031DCBF078964500F02000000A70097
:10396800000000CBDC5F7FFDF5673E62000000A72A
:10397800000000003BDD5F7FFDF5673E02000000B0
:10398800A80000000022DDBF078964500F5F000017
:10399800002101000000A20F004036627EFE0200F6
:1039A8000000A700000000B0DE5F7FFDF5673E0263
:1039B800000000A8000000008CDEBF078964520FD9
:1039C80068000000A7000000006EDF5F7FFDF5675C
:1039D8003E03000000A80000000027DFBF0789643D
:1039E800540F5700000021010000006C0000403611
:1039F800627EFE03000000BE0300000054190701A8
:103A0800A8C0088002000000A700000000A7D05F3F
:103A18007FFDF5673E02000000A80000000053D0BB
:103A2800BF078964560F63000000A7000000002F3D
:103A3800D15F7FFDF5673E02000000A8000000008E
:103A480029D1BF078964560F5E00000021010000DC
:103A5800000001004036627EFE03000000A700005F
:103A680000005BD25F7FFDF5673E02000000A80002
:103A7800000000C5D2BF078964560F64000000A784
:103A880000000000DAD35F7FFDF5673E0300000009
:103A9800A8000000007ED3BF078964580F5A0000B1
:103AA8000021010000008F02004036627EFE060001
:103AB8000000A800000000EAD4BF0789645C0F0278
:103AC800000000A700000000E0D45F7FFDF5673E1E
:103AD80063000000A7000000009BD55F7FFDF5672D
:103AE8003E02000000A8000000009CD5BF078964C2
:103AF8005E0F5E00000021010000007D03004036DB
:103B0800627EFE02000000A70000000008D65F7F6A
:103B1800FDF5673E03000000A80000000094D6BF32
:103B28000789645A0F62000000A70000000081D7CF
:103B38005F7FFDF5673E05000000A800000000C992
:103B4800D7BF078964560F59000000210100000003
:103B5800C004004036627EFE04000000A800000099
:103B680000D3D8BF078964520F02000000A70000E5
:103B78000000CCD85F7FFDF5673E68000000A70015
:103B88000000001CD95F7FFDF5673E02000000A819
:103B980000000000BDD9BF078964500F5A0000001B
:103BA8002101000000F705004036627EFE02000099
:103BB80000BE030000009F1A0701A8C00880020089
:103BC8000000A7000000001ADA5F7FFDF5673E03DA
:103BD800000000A800000000FEDABF078964520F49
:103BE800420000007600001B01760004010100007D
:103BF8000021000000A70000000074DB5F7FFDF5D6
:103C0800673E02000000A80000000033DBBF078900
:103C180064520F5B0000002101000000F006004024
:103C280036627EFE05000000A700000000CBDC5FC6
:103C38007FFDF5673E02000000A8000000002DDCB3
:103C4800BF078964520F62000000A7000000003B14
:103C5800DD5F7FFDF5673E03000000A8000000005F
:103C680096DDBF0789644E0F5B000000210100004C
:103C780000A307004036627EFE02000000A7000095
:103C88000000B0DE5F7FFDF5673E03000000A8007E
:103C980000000038DEBF0789644C0F62000000A7EF
:103CA800000000006EDF5F7FFDF5673E0200000048
:103CB800A80000000093DFBF0789644A0F5F000077
:103CC8000021010000006008004036627EFE04000A
:103CD8000000A800000000DFD0BF0789644C0F0275
:103CE800000000A700000000A7D05F7FFDF5673E39
:103CF80066000000A7000000002FD15F7FFDF56778
:103D08003E02000000A800000000B9D1BF07896486
:103D18004E0F5A00000021010000009F09004036A4
:103D2800627EFE02000000A7000000005BD25F7FF9
:103D3800FDF5673E03000000A80000000049D2BF5F
:103D48000789644C0F63000000A700000000DAD365
:103D58005F7FFDF5673E03000000A80000000082B9
:103D6800D3BF0789644A0F5D0000002101000000ED
:103D7800FA0A004036627EFE03000000BE0300001F
:103D880000E91B0701A8C0088002000000A7000086
:103D98000000E0D45F7FFDF5673E02000000A80048
:103DA80000000066D4BF078964460F64000000A7BE
:103DB800000000009BD55F7FFDF5673E0200000014
:103DC800A80000000028D5BF078964400F5B0000E9
:103DD800002101000000510B004036627EFE020007
:103DE8000000A70000000008D65F7FFDF5673E03CE
:103DF800000000A800000000AED6BF0789643C0F91
:103E080062000000A70000000081D75F7FFDF56712
:103E18003E02000000A80000000083D7BF078964A5
:103E2800380F5F0000002101000000940C004036AC
:103E3800627EFE06000000A800000000F5D8BF075B
:103E48008964360F02000000A7000000007DD85FDB
:103E58007FFDF9673E63000000A700000000ADD9B0
:103E68005F7FFDF9673E02000000A800000000A384
:103E7800D9BF078964300F5C0000002101000000F1
:103E8800870D004036627EFE02000000A700000099
:103E980000ABDA5F7FFDF9673E03000000A8000071
:103EA800000054DABF0789642C0F61000000A700E6
:103EB800000000C5DB5F7FFDF9673E02000000A837
:103EC80000000000BDDBBF0789642A0F5F00000007
:103ED8002101000000140E004036627EFE0300003F
:103EE80000A800000000EBDCBF078964260F020071
:103EF8000000A7000000007ADC5F7FFDF9673E1B29
:103F08000000004106000000AC13214F130A55922F
:103F18004A000000A7000000008ADD5F7FFDF96706
:103F28003E05000000A800000000E4DDBF0789642A
:103F3800240F590000002101000000A20F004036A4
:103F4800627EFE02000000BE030000006C1C070138
:103F5800A8C0088003000000A70000000001DE5F81
:103F68007FFDF9673E02000000A8000000001EDE89
:103F7800BF078964280F440000007600001B017603
:103F8800000401010000001C000000A70000000060
:103F9800F4DF9F7FFDF9673E02000000A8000000E3
:103FA800008DDFBF0789642A0F5F00000021010030
:103FB80000006C00004036627EFE05000000A7008D
:103FC8000000003DD09F7FFDF9673E03000000A878
:103FD80000000000E5D0BF0789642A0F62000000D6
:103FE800A700000000B5D19F7FFDF9673E020000E1
:103FF80000A800000000BBD1BF0789642C0F5C003B
:10400800000021010000000001004036627EFE032E
:10401800000000A700000000C1D29F7FFDF9673EA5
:1040280002000000A8000000006FD2BF07896428C2
:104038000F62000000A7000000006BD35F7FFDF94E
:10404800673E02000000A80000000080D3BF078977
:1040580064280F6000000021010000008F0200406A
:1040680036627EFE03000000A8000000002CD4BFCA
:10407800078964280F02000000A70000000051D43F
:104088005F7FFDF9673E62000000A7000000002A7C
:10409800D55F7FFDF9673E03000000A8000000001F
:1040A80012D5BF078964260F5F00000021010000B8
:1040B800007D03004036627EFE02000000A700007B
:1040C800000070E65F7FFDF9673E02000000A8006F
:1040D80000000022D6BF078964260F1200000040A6
:1040E8000600000002816FB7762003285300000005
:1040F800A700000000F9E75F7FFDF9673E020000B6
:1041080000A80000000037D7BF078964260F6100A8
:1041180000002101000000C004004036627EFE025B
:10412800000000BE03000000D71D0701A8C00880DA
:1041380003000000A80000000015D8BF0789642606
:104148000F02000000A700000000B4E85F7FFDF93F
:10415800673E5B000000A70000000064E95F7FFD88
:10416800F9673E02000000A80000000033D9BF072D
:104178008964280F610000002101000000F7050094
:104188004036627EFE03000000A70000000062EADD
:104198005F7FFDF9673E02000000A8000000007084
:1041A800DABF0789642A0F60000000A7000000003A
:1041B8000CEB5F7FFDF9673E02000000A8000000DD
:1041C8000085DBBF0789642E0F6500000021010010
:1041D8000000F006004036627EFE05000000A800E0
:1041E8000000009BDCBF0789642E0F02000000A7B7
:1041F80000000000B3EC5F7FFDF9673E5A00000045
:10420800A70000000043ED5F7FFDF9673E03000053
:1042180000A80000000088DDBF0789642E0F620037
:1042280000002101000000A307004036627EFE0363
:10423800000000A700000000C8EE5F7FFDF9673EA0
:1042480002000000A8000000003ADEBF0789642EC3
:104258000F5E000000A70000000016EF5F7FFDF969
:10426800673E05000000A800000000A9DFBF07891D
:10427800642C0F5B00000021010000006008004072
:1042880036627EFE08000000A800000000C1D0BF12
:104298000789642C0F03000000A700000000DFE07E
:1042A8005F7FFDF9673E60000000A700000000572F
:1042B800E15F7FFDF9673E02000000A800000000F2
:1042C800BBD1BF0789642C0F6000000021010000EA
:1042D800009F09004036627EFE02000000BE030017
:1042E8000000C81E0701A8C0088002000000A7003F
:1042F80000000023E25F7FFDF9673E03000000A88D
:10430800000000006FD2BF078964280F3F0000003B
:104318007600001B0176000401010000001C00006B
:1043280000A700000000A2E35F7FFDF9673E0200DE
:104338000000A8000000009CD3BF0789642A0F5F13
:104348000000002101000000FA0A004036627EFEEB
:1043580005000000A70000000098E45F7FFDF967F2
:104368003E02000000A80000000014D4BF078964C2
:104378002C0F61000000A700000000E3E55F7FFD4F
:10438800F9673E02000000A80000000062D5BF07E0
:1043980089642E0F610000002101000000510B000C
:1043A8004036627EFE03000000A70000000070E6B1
:1043B8005F7FFDF9673E02000000A800000000E6EC
:1043C800D6BF078964300F60000000A70000000016
:1043D800F9E75F7FFDF9673E02000000A8000000D2
:1043E800005BD7BF0789642C0F5F00000021010024
:1043F8000000940C004036627EFE03000000A80016
:104408000000005DD8BF0789642A0F02000000A7DA
:1044180000000000B4E85F7FFDF9673E620000001D
:10442800A70000000064E95F7FFDF9673E02000015
:1044380000A80000000033D9BF078964280F620074
:1044480000002101000000870D004036627EFE0258
:10445800000000A70000000062EA5F7FFDF9673EE8
:1044680003000000A80000000038DABF07896426AE
:104478000F61000000A7000000000CEB5F7FFDF952
:10448800673E02000000A800000000E9DBBF0789C2
:1044980064240F5D0000002101000000140E00409C
:1044A80036627EFE02000000BE03000000C51F0742
:1044B80001A8C0088002000000A700000000B3ECBB
:1044C8005F7FFDF9673E02000000A800000000D3EE
:1044D800DCBF078964220F61000000A7000000000C
:1044E80043ED5F7FFDF9673E02000000A800000071
:1044F80000DCDDBF078964200F6400000021010093
:104508000000A20F004036627EFE02000000A700F5
:10451800000000C7EE5F7FFDF9573E03000000A8CA
:10452800000000000DDEBF0789641A0F5C00000060
:10453800A70000000019EF5F7FFDF9573E03000058
:1045480000A800000000A6DFBF0789641C0F5E00FA
:10455800000021010000006C00004036627EFE066B
:10456800000000A800000000D2D0BF0789641E0F19
:1045780002000000A700000000FBE09F7FFDF95744
:104588003E60000000A7000000007CE19F7FFDF96D
:10459800673E03000000A800000000F3D1BF0789B0
:1045A80064200F61000000210100000000010040AC
:1045B80036627EFE02000000A70000000008E29FAD
:1045C8007FFDF9673E03000000A80000000027D225
:1045D800BF078964240F61000000A700000000895C
:1045E800E39F7FFDF9673E02000000A8000000007D
:1045F8009CD3BF0789642A0F5D00000021010000D9
:10460800008F02004036627EFE03000000A8000012
:10461800000014D4BF0789642C0F02000000A70013
:10462800000000B3E49F7FFDF9673E64000000A727
:1046380000000000C8E59F7FFDF9673E020000000A
:10464800A80000000062D5BF0789642E0F5D000036
:104658000021010000007D03004036627EFE02005A
:104668000000BE030000007C100701A8C0088003FA
:10467800000000A70000000054E69F7FFDF9573EA8
:1046880002000000A800000000FAD6BF07896432C3
:104698000F450000007600001B01760004010100B0
:1046A80000001C000000A700000000DDE79F7FFD60
:1046B800F9573E02000000A800000000F3D7BF072A
:1046C8008964300F600000002101000000C0040070
:1046D8004036627EFE05000000A80000000065D894
:1046E800BF0789642E0F02000000A700000000BB6E
:1046F800E85F7FFDF9573E62000000A70000000058
:104708006BE95F7FFDF9573E03000000A800000039
:104718000017D9BF0789642E0F5900000021010036
:104728000000F705004036627EFE03000000A70087
:104738000000006DEA5F7FFDF9573E02000000A807
:104748000000000054DABF0789642C0F65000000E0
:10475800A70000000003EB5F7FFDF9573E02000051
:1047680000A800000000A1DBBF078964280F6000D3
:1047780000002101000000F006004036627EFE02C3
:10478800000000A800000000F7DCBF078964240FC0
:1047980002000000A700000000BCEC5F7FFDF95795
:1047A8003E65000000A7000000004CED5F7FFDF9AA
:1047B800573E02000000A800000000C0DDBF0789C6
:1047C80064220F590000002101000000A3070040E7
:1047D80036627EFE03000000A700000000C7EE5FFF
:1047E8007FFDF9573E02000000A80000000072DEBD
:1047F800BF078964220F68000000A70000000019A5
:10480800EF5F7FFDF9573E03000000A8000000009D
:10481800FDDFBF078964220F590000002101000055
:10482800006008004036627EFE02000000BE030001
:10483800000008110701A8C0088003000000A800B4
:1048480000000095D0BF078964220F02000000A76E
:1048580000000000D0E05F7FFDF9573E65000000D2
:10486800A70000000058E15F7FFDF9573E020000F5
:1048780000A800000000A8D1BF0789641E0F5A00D5
:10488800000021010000009F09004036627EFE0200
:10489800000000A7000000002CE25F7FFDF9573EF2
:1048A80003000000A8000000007CD2BF0789641A3A
:1048B8000F65000000A700000000ADE35F7FFDF971
:1048C800573E02000000A80000000014D39F07898B
:1048D80064180F5C0000002101000000FA0A004083
:1048E80036627EFE05000000A70000000097E45F26
:1048F8007FFDF9573E03000000A8000000009CD48B
:104908009F0789641E0F5F000000A700000000C712
:10491800E59F7FFDF9573E02000000A80000000057
:10492800B1D59F078964220F5F00000021010000B4
:1049380000510B004036627EFE03000000A7000015
:10494800000054E69F7FFDF9573E02000000A800D2
:10495800000000A5D69F078964240F66000000A701
:1049680000000000DDE79F7FFDF9573E02000000D0
:10497800A800000000ACD79F078964260F5B0000E1
:10498800002101000000940C004036627EFE030006
:104998000000A80000000092D89F078964240F0235
:1049A800000000A70000000090E89F7FFDF9573E37
:1049B80012000000400600000002816FB776200355
:1049C8002852000000A70000000040E99F7FFDF981
:1049D800573E03000000A800000000C4D99F0789C3
:1049E80064220F5C0000002101000000870D0040D8
:1049F80036627EFE02000000BE0300000067120758
:104A080001A8C0088002000000A70000000046EAD4
:104A18009F7FFDF9573E03000000A8000000009B9F
:104A2800DA9F078964220F430000007600001B010B
:104A3800760004010100000020000000A70000002B
:104A48000028EB9F7FFDF9573E02000000A80000F8
:104A58000000F5DBBF078964260F5C000000210118
:104A6800000000140E004036627EFE05000000A71C
:104A78000000000097EC9F7FFDF9573E0200000000
:104A8800A8000000009BDCBF0789642E0F600000AF
:104A980000A70000000067ED9F7FFDF9573E020068
:104AA8000000A80000000020DDBF078964320F5F06
:104AB8000000002101000000A20F004036627EFEC7
:104AC80002000000A700000000ECEE9F7FFDF957F0
:104AD8003E02000000A800000000AADEBF078964AB
:104AE800360F67000000A70000000032EF9F7FFD2F
:104AF800F9573E02000000A8000000006DDFBF0764
:104B080089643A0F5B00000021010000006C00007E
:104B18004036627EFE03000000A800000000BAD004
:104B28009F0789643C0F03000000A700000000FBFA
:104B3800E09F7FFDF9573E60000000A700000000DD
:104B480058E15F7FFDF9573E04000000A80000000F
:104B58000076D19F078964400F5E000000210100A4
:104B680000000001004036627EFE02000000A7003F
:104B78000000002CE25F7FFDF9573E03000000A80B
:104B880000000000BED29F078964460F670000003E
:104B9800A700000000ADE35F7FFDF9573E0200006B
:104BA80000A80000000019D39F0789644A0F5A0023
:104BB800000021010000008F02004036627EFE02E4
:104BC800000000BE0300000094130701A8C008807D
:104BD80002000000A70000000097E45F7FFDF9577E
:104BE8003E03000000A80000000091D49F078964DC
:104BF8004C0F60000000A700000000ECE55F7FFD9F
:104C0800F9573E03000000A80000000053D59F0795
:104C18008964500F5E00000021010000007D030040
:104C28004036627EFE02000000A700000000CEE6CB
:104C38005F7FFDF5573E03000000A8000000005B01
:104C4800D69F078964540F64000000A70000000085
:104C580047E75F7FFDF5573E02000000A80000000F
:104C68000081D7BF0789645A0F5D00000021010049
:104C78000000C004004036627EFE06000000A70067
:104C88000000000AE85F7FFDF5573E02000000A81B
:104C980000000000C0D8BF078964600F5F000000F3
:104CA800A700000000DAE95F7FFDF5573E0200002B
:104CB80000A800000000AED9BF078964620F5F003A
:104CC80000002101000000F705004036627EFE0367
:104CD800000000A700000000DCEA5F7FFDF5573EFA
:104CE80002000000A800000000D5DABF078964644C
:104CF8000F64000000A700000000B2EB5F7FFDF525
:104D0800573E02000000A80000000050DBBF0789E2
:104D180064680F5D0000002101000000F0060040FB
:104D280036627EFE03000000A8000000004EDCBFD3
:104D3800078964680F02000000A7000000000DEC5E
:104D48005F7FFDF5573E64000000A700000000FDEE
:104D5800ED5F7FFDF5573E03000000A8000000004E
:104D68005DDDBF078964680F5D0000002101000058
:104D780000A307004036627EFE02000000BE03006A
:104D8800000063140701A8C0088003000000A70002
:104D9800000000BFDE5F7FFDF5573E02000000A85F
:104DA80000000000F3DEBF0789646A0F42000000BC
:104DB8007600001B0176000401010000001E0000BF
:104DC80000A70000000061DF5F7FFDF5573E02008D
:104DD8000000A8000000007CDFBF0789646A0F613B
:104DE80000000021010000006008004036627EFEDD
:104DF80003000000A700000000A8D05F7FFDF55762
:104E08003E02000000A8000000005CD0BF078964D3
:104E1800660F61000000A70000000020D15F7FFD41
:104E2800F5573E02000000A8000000001ED1BF0791
:104E38008964620F6200000021010000009F0900E0
:104E48004036627EFE02000000A70000000054D237
:104E58005F7FFDF5573E03000000A800000000B585
:104E6800D2BF0789645E0F5D000000A70000000044
:104E7800D5D35F7FFDF5573E02000000A800000073
:104E8800005AD3BF0789645E0F6300000021010048
:104E98000000FA0A004036627EFE02000000A80008
:104EA800000000B1D4BF078964620F02000000A7A8
:104EB80000000000EFD45F7FFDF5573E6100000061
:104EC800A70000000094D55F7FFDF5573E02000063
:104ED80000A800000000B7D5BF078964680F62000A
:104EE80000002101000000510B004036627EFE03E5
:104EF800000000A70000000007D65F7FFDF5573EC1
:104F080002000000A80000000087D6BF0789646877
:104F18000F5F000000A7000000008ED75F7FFDF53F
:104F2800573E02000000A8000000008ED7BF078986
:104F3800646A0F600000002101000000940C00402A
:104F480036627EFE02000000BE030000001C15074A
:104F580001A8C0088003000000A800000000B0D825
:104F6800BF078964680F02000000A700000000C3A3
:104F7800D85F7FFDF5573E5F000000A700000000E6
:104F88001CD95F7FFDF5673E02000000A800000005
:104F9800008AD9BF078964640F63000000210100FB
:104FA8000000870D004036627EFE02000000A70068
:104FB8000000001ADA5F7FFDF5673E02000000A8D6
:104FC80000000000D5DABF078964640F5C000000A8
:104FD800A70000000074DB5F7FFDF5673E0300005B
:104FE80000A8000000003CDBBF078964620F630073
:104FF80000002101000000140E004036627EFE040D
:10500800000000A700000000CBDC5F7FFDF5673ED5
:1050180003000000A80000000022DCBF07896462CA
:105028000F5E000000A7000000003BDD5F7FFDF57C
:10503800673E03000000A80000000009DDBF0789E3
:1050480064660F620000002101000000A20F00400A
:1050580036627EFE02000000A700000000B0DE5F9E
:105068007FFDF5673E03000000A800000000F3DEA6
:10507800BF0789646A0F5C000000A7000000006E8B
:10508800DF5F7FFDF5673E02000000A8000000001A
:1050980044DFBF0789646E0F630000002101000030
:1050A800006C00004036627EFE03000000A800008D
:1050B800000098D0BF078964700F02000000A700A5
:1050C800000000A7D05F7FFDF5673E1A0000004191
:1050D80006000000BF14214F130A55924800000033
:1050E800A7000000002FD15F7FFDF5673E0200009A
:1050F80000A800000000E2D1BF078964700F6000BB
:10510800000021010000000001004036627EFE031D
:10511800000000BE0300000001160701A8C00880B7
:1051280002000000A7000000005BD25F7FFDF5676A
:105138003E02000000A800000000BAD2BF07896440
:105148006E0F3E0000007600001B0176000401018E
:105158000000001D000000A700000000DAD35F7FF8
:10516800FDF5673E02000000A80000000055D3BF0F
:105178000789646E0F6300000021010000008F02A0
:10518800004036627EFE05000000A8000000004DC9
:10519800D4BF078964700F02000000A70000000058
:1051A800E0D45F7FFDF5673E5E000000A7000000C9
:1051B800009BD55F7FFDF5673E02000000A8000058
:1051C800000003D5BF078964760F5D000000210148
:1051D8000000007D03004036627EFE08000000A744
:1051E8000000000008D65F7FFDF5673E0200000062
:1051F800A8000000005FD6BF0789647C0F5F00002D
:1052080000A70000000081D75F7FFDF5673E020020
:105218000000A80000000056D7BF0789647E0F6110
:105228000000002101000000C004004036627EFE3C
:1052380004000000A80000000068D8BF0789647C4B
:105248000F02000000A700000000CCD85F7FFDF52A
:10525800673E5D000000A7000000001CD95F7FFDCD
:10526800F5673E02000000A80000000076D9BF07DD
:105278008964760F5F0000002101000000F7050037
:105288004036627EFE02000000A70000000003DA3C
:105298001F7FFDF5673E02000000A8000000001116
:1052A800DABF078964720F1600000040060000008C
:1052B80002816FB7762003284F000000A700000086
:1052C800006DDB1F7FFDF5673E03000000A80000AE
:1052D8000000DCDBBF078964720F60000000210159
:1052E800000000F006004036627EFE02000000BEAC
:1052F800030000008D170701A8C008800300000004
:10530800A700000000D2DC1F7FFDF5673E02000009
:1053180000A800000000E6DCBF078964740F5C0089
:105328000000A70000000022DD1F7FFDF5673E0397
:10533800000000A800000000A1DDBF0789647A0F03
:10534800600000002101000000A307004036627ED3
:10535800FE03000000A700000000A9DE1F7FFDF586
:10536800673E02000000A80000000013DEBF0789A6
:10537800647A0F5F000000A70000000077DF1F7F3E
:10538800FDF5673E03000000A8000000009CDFBF99
:105398000789647A0F650000002101000000600899
:1053A800004036627EFE07000000A700000000BE35
:1053B800D01F7FFDF5673E02000000A80000000036
:1053C800BCD0BF078964760F58000000A700000012
:1053D8000036D11F7FFDF5673E02000000A80000DF
:1053E8000000E2D1BF078964700F6200000021014C
:1053F8000000009F09004036627EFE05000000A7FD
:105408000000000042D21F7FFDF5673E0200000049
:10541800A800000000A6D2BF0789646C0F5F0000D7
:1054280000A700000000C3D31F7FFDF5673E0300FF
:105438000000A80000000025D3BF078964660F623A
:105448000000002101000000FA0A004036627EFEDA
:1054580002000000A800000000ADD4BF0789646006
:105468000F03000000A700000000F9D41F7FFDF51E
:10547800673E61000000A70000000082D51F7FFD85
:10548800F5673E02000000A800000000C7D5BF076E
:105498008964600F5C0000002101000000510B00CE
:1054A8004036627EFE03000000BE0300000077184D
:1054B8000701A8C0088002000000A700000000083B
:1054C800D65F7FFDF5673E03000000A800000000DE
:1054D800F7D6BF078964600F430000007600001B01
:1054E8000176000401010000001C000000A7000074
:1054F800000081D75F7FFDF5673E02000000A8002D
:10550800000000FED7BF078964620F630000002116
:1055180001000000940C004036627EFE0700000087
:10552800A800000000DCD8BF078964620F020000F1
:1055380000A700000000CCD85F7FFDF5673E59004A
:105548000000A7000000001CD95F7FFDF5673E033F
:10555800000000A800000000E9D9BF0789645E0FB9
:105568005F0000002101000000870D004036627EC8
:10557800FE02000000A70000000003DA1F7FFDF50F
:10558800673E02000000A8000000008EDABF07890D
:10559800645A0F63000000A7000000006DDB1F7F46
:1055A800FDF5673E02000000A80000000017DBBF01
:1055B800078964540F630000002101000000140EE5
:1055C800004036627EFE04000000A80000000031A2
:1055D800DCBF078964500F02000000A7000000002C
:1055E800D2DC1F7FFDF5673E5D000000A7000000CC
:1055F8000022DD1F7FFDF5673E02000000A80000C5
:10560800000022DDBF078964500F5F000000210100
:10561800000000A20F004036627EFE02000000A7D4
:1056280000000000B0DE5F7FFDF5673E030000006C
:10563800A8000000008CDEBF078964520F630000D9
:1056480000A7000000006EDF5F7FFDF5673E0300E6
:105658000000A8000000001FDFBF078964500F602A
:1056680000000021010000006C00004036627EFE50
:1056780003000000BE0300000054190701A8C00879
:105688008002000000A700000000A7D05F7FFDF5A2
:10569800673E02000000A800000000C3D0BF0789D1
:1056A800644E0F5D000000A7000000002FD15F7F4F
:1056B800FDF5673E02000000A8000000000DD1BF04
:1056C800078964500F5F00000021010000000001FD
:1056D800004036627EFE03000000A7000000005B69
:1056E800D25F7FFDF5673E02000000A800000000C1
:1056F800FDD2BF078964520F61000000A7000000B7
:1057080000DAD35F7FFDF5673E02000000A80000C5
:10571800000036D3BF078964540F630000002101DD
:105728000000008F02004036627EFE07000000A7DE
:1057380000000000E0D45F7FFDF5673E0300000035
:10574800A800000000D2D4BF078964580F5A00008F
:1057580000A7000000009BD55F7FFDF5673E0200B3
:105768000000A800000000B8D5BF078964580F5F83
:1057780000000021010000007D03004036627EFE2B
:1057880002000000A70000000008D65F7FFDF56753
:105798003E03000000A80000000094D6BF078964FB
:1057A8005A0F62000000A70000000081D75F7FFD4C
:1057B800F5673E02000000A8000000009DD7BF0763
:1057C8008964580F610000002101000000C0040036
:1057D8004036627EFE04000000A800000000A3D846
:1057E800BF0789645A0F02000000A700000000CC20
:1057F800D85F7FFDF5673E61000000A7000000004C
:105808001CD95F7FFDF5673E02000000A80000007C
:105818000099D9BF078964560F5D00000021010077
:105828000000F705004036627EFE02000000BE035D
:105838000000009F1A0701A8C0088003000000A705
:10584800000000001ADA5F7FFDF5673E02000000E5
:10585800A800000000E2DABF078964500F43000087
:10586800007600001B0176000401010000001C0006
:105878000000A70000000074DB5F7FFDF5673E02B3
:10588800000000A800000000A3DBBF0789644A0FDE
:10589800620000002101000000F006004036627E30
:1058A800FE05000000A800000000CDDCBF078964E9
:1058B800420F03000000A700000000CBDC5F7FFD63
:1058C800F5673E5C000000A7000000003BDD5F7F3D
:1058D800FDF5673E03000000A80000000068DDBF7A
:1058E8000789643E0F5F0000002101000000A30744
:1058F800004036627EFE02000000A700000000B0F3
:10590800DE5F7FFDF5673E03000000A80000000091
:10591800C6DEBF0789643C0F65000000A7000000D1
:10592800006EDF5F7FFDF5673E03000000A8000002
:10593800000049DFBF0789643C0F5C0000002101BB
:105948000000006008004036627EFE03000000A8E8
:105958000000000005D0BF0789643A0F020000006C
:10596800A700000000A7D05F7FFDF5673E6200003A
:1059780000A7000000002FD15F7FFDF5673E030000
:105988000000A8000000005BD1BF0789643C0F5EDF
:1059980000000021010000009F09004036627EFEE1
:1059A80003000000A7000000005BD25F7FFDF567E1
:1059B8003E02000000A80000000093D2BF078964DF
:1059C8003A0F67000000A700000000DAD35F7FFDF0
:1059D800F5673E02000000A80000000060D3BF0782
:1059E8008964380F590000002101000000FA0A00FC
:1059F8004036627EFE02000000BE03000000E91B84
:105A08000701A8C0088002000000A700000000E00D
:105A1800D45F7FFDF5673E03000000A8000000008A
:105A280098D4BF078964360F63000000A700000000
:105A3800009BD55F7FFDF5673E02000000A80000CF
:105A48000000A6D5BF078964380F5E000000210159
:105A5800000000510B004036627EFE02000000A7E5
:105A68000000000008D65F7FFDF5673E02000000D9
:105A7800A8000000008AD6BF0789643A0F650000B5
:105A880000A70000000081D75F7FFDF5673E020098
:105A98000000A800000000A7D7BF0789643E0F5B7D
:105AA8000000002101000000940C004036627EFED8
:105AB80005000000A700000000CCD85F7FFDF56757
:105AC8003E03000000A80000000085D8BF078964D5
